:020000040000FA
:020000001028C6
:040002000034003492
:1000200000008316031361308F008312850186015F
:1000300087018316031300308500FF3086000F30E0
:1000400087007F308100FF30950003170030880063
:1000500000308900831203138A01000007080F395A
:10006000A000201940282018372807133828071720
:100070000000A0183D2887138728000087178728CD
:10008000000020080339A200003C031D55288618F3
:100090004B2807134D2800000717000006185228A8
:1000A0008713872800008717872800002208013C53
:1000B000031D682886195E280713602800000717AB
:1000C00000000619652887138728000087178728EE
:1000D00000002208023C031D7A28861A71280713A3
:1000E000722807170000061A772887138728000050
:1000F000871787280000861B7F280713802807178B
:100100000000061B8528871387280000871700003A
:10011000A0198D280030850092280000200807399A
:10012000932085002D28820780342034083402343F
:080130004034103404340134A2
:02400E00F42399
:02401000FF3E71
:00000001FF
